{
  "_format": "hh-sol-artifact-1",
  "contractName": "Greenhouses",
  "sourceName": "contracts/Greenhouses.sol",
  "abi": [
    {
      "inputs": [
        {
          "internalType": "address",
          "name": "_collection1",
          "type": "address"
        },
        {
          "internalType": "address",
          "name": "_collection2",
          "type": "address"
        },
        {
          "internalType": "address",
          "name": "initialOwner",
          "type": "address"
        },
        {
          "internalType": "string",
          "name": "_initBaseURI",
          "type": "string"
        }
      ],
      "stateMutability": "nonpayable",
      "type": "constructor"
    },
    {
      "inputs": [],
      "name": "ERC721EnumerableForbiddenBatchMint",
      "type": "error"
    },
    {
      "inputs": [
        {
          "internalType": "address",
          "name": "sender",
          "type": "address"
        },
        {
          "internalType": "uint256",
          "name": "tokenId",
          "type": "uint256"
        },
        {
          "internalType": "address",
          "name": "owner",
          "type": "address"
        }
      ],
      "name": "ERC721IncorrectOwner",
      "type": "error"
    },
    {
      "inputs": [
        {
          "internalType": "address",
          "name": "operator",
          "type": "address"
        },
        {
          "internalType": "uint256",
          "name": "tokenId",
          "type": "uint256"
        }
      ],
      "name": "ERC721InsufficientApproval",
      "type": "error"
    },
    {
      "inputs": [
        {
          "internalType": "address",
          "name": "approver",
          "type": "address"
        }
      ],
      "name": "ERC721InvalidApprover",
      "type": "error"
    },
    {
      "inputs": [
        {
          "internalType": "address",
          "name": "operator",
          "type": "address"
        }
      ],
      "name": "ERC721InvalidOperator",
      "type": "error"
    },
    {
      "inputs": [
        {
          "internalType": "address",
          "name": "owner",
          "type": "address"
        }
      ],
      "name": "ERC721InvalidOwner",
      "type": "error"
    },
    {
      "inputs": [
        {
          "internalType": "address",
          "name": "receiver",
          "type": "address"
        }
      ],
      "name": "ERC721InvalidReceiver",
      "type": "error"
    },
    {
      "inputs": [
        {
          "internalType": "address",
          "name": "sender",
          "type": "address"
        }
      ],
      "name": "ERC721InvalidSender",
      "type": "error"
    },
    {
      "inputs": [
        {
          "internalType": "uint256",
          "name": "tokenId",
          "type": "uint256"
        }
      ],
      "name": "ERC721NonexistentToken",
      "type": "error"
    },
    {
      "inputs": [
        {
          "internalType": "address",
          "name": "owner",
          "type": "address"
        },
        {
          "internalType": "uint256",
          "name": "index",
          "type": "uint256"
        }
      ],
      "name": "ERC721OutOfBoundsIndex",
      "type": "error"
    },
    {
      "inputs": [],
      "name": "EnforcedPause",
      "type": "error"
    },
    {
      "inputs": [],
      "name": "ExpectedPause",
      "type": "error"
    },
    {
      "inputs": [
        {
          "internalType": "address",
          "name": "collection",
          "type": "address"
        }
      ],
      "name": "InvalidCollection",
      "type": "error"
    },
    {
      "inputs": [
        {
          "internalType": "address",
          "name": "owner",
          "type": "address"
        },
        {
          "internalType": "address",
          "name": "caller",
          "type": "address"
        }
      ],
      "name": "NotTokenOwner",
      "type": "error"
    },
    {
      "inputs": [
        {
          "internalType": "address",
          "name": "owner",
          "type": "address"
        }
      ],
      "name": "OwnableInvalidOwner",
      "type": "error"
    },
    {
      "inputs": [
        {
          "internalType": "address",
          "name": "account",
          "type": "address"
        }
      ],
      "name": "OwnableUnauthorizedAccount",
      "type": "error"
    },
    {
      "inputs": [
        {
          "internalType": "uint256",
          "name": "tokenId",
          "type": "uint256"
        }
      ],
      "name": "TokenAlreadyClaimed",
      "type": "error"
    },
    {
      "anonymous": false,
      "inputs": [
        {
          "indexed": true,
          "internalType": "address",
          "name": "owner",
          "type": "address"
        },
        {
          "indexed": true,
          "internalType": "address",
          "name": "approved",
          "type": "address"
        },
        {
          "indexed": true,
          "internalType": "uint256",
          "name": "tokenId",
          "type": "uint256"
        }
      ],
      "name": "Approval",
      "type": "event"
    },
    {
      "anonymous": false,
      "inputs": [
        {
          "indexed": true,
          "internalType": "address",
          "name": "owner",
          "type": "address"
        },
        {
          "indexed": true,
          "internalType": "address",
          "name": "operator",
          "type": "address"
        },
        {
          "indexed": false,
          "internalType": "bool",
          "name": "approved",
          "type": "bool"
        }
      ],
      "name": "ApprovalForAll",
      "type": "event"
    },
    {
      "anonymous": false,
      "inputs": [
        {
          "indexed": true,
          "internalType": "address",
          "name": "claimer",
          "type": "address"
        },
        {
          "indexed": true,
          "internalType": "uint256",
          "name": "tokenId",
          "type": "uint256"
        },
        {
          "indexed": true,
          "internalType": "address",
          "name": "originalCollection",
          "type": "address"
        }
      ],
      "name": "Claimed",
      "type": "event"
    },
    {
      "anonymous": false,
      "inputs": [
        {
          "indexed": true,
          "internalType": "address",
          "name": "previousOwner",
          "type": "address"
        },
        {
          "indexed": true,
          "internalType": "address",
          "name": "newOwner",
          "type": "address"
        }
      ],
      "name": "OwnershipTransferred",
      "type": "event"
    },
    {
      "anonymous": false,
      "inputs": [
        {
          "indexed": false,
          "internalType": "address",
          "name": "account",
          "type": "address"
        }
      ],
      "name": "Paused",
      "type": "event"
    },
    {
      "anonymous": false,
      "inputs": [
        {
          "indexed": false,
          "internalType": "string",
          "name": "_value",
          "type": "string"
        },
        {
          "indexed": true,
          "internalType": "uint256",
          "name": "_id",
          "type": "uint256"
        }
      ],
      "name": "PermanentURI",
      "type": "event"
    },
    {
      "anonymous": false,
      "inputs": [
        {
          "indexed": true,
          "internalType": "address",
          "name": "from",
          "type": "address"
        },
        {
          "indexed": true,
          "internalType": "address",
          "name": "to",
          "type": "address"
        },
        {
          "indexed": true,
          "internalType": "uint256",
          "name": "tokenId",
          "type": "uint256"
        }
      ],
      "name": "Transfer",
      "type": "event"
    },
    {
      "anonymous": false,
      "inputs": [
        {
          "indexed": false,
          "internalType": "address",
          "name": "account",
          "type": "address"
        }
      ],
      "name": "Unpaused",
      "type": "event"
    },
    {
      "inputs": [
        {
          "internalType": "address",
          "name": "to",
          "type": "address"
        },
        {
          "internalType": "uint256",
          "name": "tokenId",
          "type": "uint256"
        }
      ],
      "name": "approve",
      "outputs": [],
      "stateMutability": "nonpayable",
      "type": "function"
    },
    {
      "inputs": [
        {
          "internalType": "address",
          "name": "owner",
          "type": "address"
        }
      ],
      "name": "balanceOf",
      "outputs": [
        {
          "internalType": "uint256",
          "name": "",
          "type": "uint256"
        }
      ],
      "stateMutability": "view",
      "type": "function"
    },
    {
      "inputs": [],
      "name": "baseExtension",
      "outputs": [
        {
          "internalType": "string",
          "name": "",
          "type": "string"
        }
      ],
      "stateMutability": "view",
      "type": "function"
    },
    {
      "inputs": [],
      "name": "baseURI",
      "outputs": [
        {
          "internalType": "string",
          "name": "",
          "type": "string"
        }
      ],
      "stateMutability": "view",
      "type": "function"
    },
    {
      "inputs": [
        {
          "internalType": "uint256",
          "name": "tokenId",
          "type": "uint256"
        }
      ],
      "name": "burn",
      "outputs": [],
      "stateMutability": "nonpayable",
      "type": "function"
    },
    {
      "inputs": [
        {
          "internalType": "uint256[]",
          "name": "tokenIds",
          "type": "uint256[]"
        },
        {
          "internalType": "address",
          "name": "originalCollection",
          "type": "address"
        }
      ],
      "name": "claim",
      "outputs": [],
      "stateMutability": "nonpayable",
      "type": "function"
    },
    {
      "inputs": [
        {
          "internalType": "uint256",
          "name": "",
          "type": "uint256"
        }
      ],
      "name": "claimedFromCollection1",
      "outputs": [
        {
          "internalType": "bool",
          "name": "",
          "type": "bool"
        }
      ],
      "stateMutability": "view",
      "type": "function"
    },
    {
      "inputs": [
        {
          "internalType": "uint256",
          "name": "",
          "type": "uint256"
        }
      ],
      "name": "claimedFromCollection2",
      "outputs": [
        {
          "internalType": "bool",
          "name": "",
          "type": "bool"
        }
      ],
      "stateMutability": "view",
      "type": "function"
    },
    {
      "inputs": [
        {
          "internalType": "uint256",
          "name": "tokenId",
          "type": "uint256"
        }
      ],
      "name": "getApproved",
      "outputs": [
        {
          "internalType": "address",
          "name": "",
          "type": "address"
        }
      ],
      "stateMutability": "view",
      "type": "function"
    },
    {
      "inputs": [],
      "name": "getCollection1",
      "outputs": [
        {
          "internalType": "contract ERC721",
          "name": "",
          "type": "address"
        }
      ],
      "stateMutability": "view",
      "type": "function"
    },
    {
      "inputs": [],
      "name": "getCollection2",
      "outputs": [
        {
          "internalType": "contract ERC721",
          "name": "",
          "type": "address"
        }
      ],
      "stateMutability": "view",
      "type": "function"
    },
    {
      "inputs": [
        {
          "internalType": "address",
          "name": "owner",
          "type": "address"
        },
        {
          "internalType": "address",
          "name": "operator",
          "type": "address"
        }
      ],
      "name": "isApprovedForAll",
      "outputs": [
        {
          "internalType": "bool",
          "name": "",
          "type": "bool"
        }
      ],
      "stateMutability": "view",
      "type": "function"
    },
    {
      "inputs": [],
      "name": "name",
      "outputs": [
        {
          "internalType": "string",
          "name": "",
          "type": "string"
        }
      ],
      "stateMutability": "view",
      "type": "function"
    },
    {
      "inputs": [],
      "name": "owner",
      "outputs": [
        {
          "internalType": "address",
          "name": "",
          "type": "address"
        }
      ],
      "stateMutability": "view",
      "type": "function"
    },
    {
      "inputs": [
        {
          "internalType": "uint256",
          "name": "tokenId",
          "type": "uint256"
        }
      ],
      "name": "ownerOf",
      "outputs": [
        {
          "internalType": "address",
          "name": "",
          "type": "address"
        }
      ],
      "stateMutability": "view",
      "type": "function"
    },
    {
      "inputs": [],
      "name": "pause",
      "outputs": [],
      "stateMutability": "nonpayable",
      "type": "function"
    },
    {
      "inputs": [],
      "name": "paused",
      "outputs": [
        {
          "internalType": "bool",
          "name": "",
          "type": "bool"
        }
      ],
      "stateMutability": "view",
      "type": "function"
    },
    {
      "inputs": [],
      "name": "renounceOwnership",
      "outputs": [],
      "stateMutability": "nonpayable",
      "type": "function"
    },
    {
      "inputs": [
        {
          "internalType": "address",
          "name": "to",
          "type": "address"
        },
        {
          "internalType": "uint256",
          "name": "tokenId",
          "type": "uint256"
        }
      ],
      "name": "safeMint",
      "outputs": [],
      "stateMutability": "nonpayable",
      "type": "function"
    },
    {
      "inputs": [
        {
          "internalType": "address",
          "name": "from",
          "type": "address"
        },
        {
          "internalType": "address",
          "name": "to",
          "type": "address"
        },
        {
          "internalType": "uint256",
          "name": "tokenId",
          "type": "uint256"
        }
      ],
      "name": "safeTransferFrom",
      "outputs": [],
      "stateMutability": "nonpayable",
      "type": "function"
    },
    {
      "inputs": [
        {
          "internalType": "address",
          "name": "from",
          "type": "address"
        },
        {
          "internalType": "address",
          "name": "to",
          "type": "address"
        },
        {
          "internalType": "uint256",
          "name": "tokenId",
          "type": "uint256"
        },
        {
          "internalType": "bytes",
          "name": "data",
          "type": "bytes"
        }
      ],
      "name": "safeTransferFrom",
      "outputs": [],
      "stateMutability": "nonpayable",
      "type": "function"
    },
    {
      "inputs": [
        {
          "internalType": "address",
          "name": "operator",
          "type": "address"
        },
        {
          "internalType": "bool",
          "name": "approved",
          "type": "bool"
        }
      ],
      "name": "setApprovalForAll",
      "outputs": [],
      "stateMutability": "nonpayable",
      "type": "function"
    },
    {
      "inputs": [
        {
          "internalType": "string",
          "name": "_newBaseURI",
          "type": "string"
        }
      ],
      "name": "setBaseURI",
      "outputs": [],
      "stateMutability": "nonpayable",
      "type": "function"
    },
    {
      "inputs": [
        {
          "internalType": "bytes4",
          "name": "interfaceId",
          "type": "bytes4"
        }
      ],
      "name": "supportsInterface",
      "outputs": [
        {
          "internalType": "bool",
          "name": "",
          "type": "bool"
        }
      ],
      "stateMutability": "view",
      "type": "function"
    },
    {
      "inputs": [],
      "name": "symbol",
      "outputs": [
        {
          "internalType": "string",
          "name": "",
          "type": "string"
        }
      ],
      "stateMutability": "view",
      "type": "function"
    },
    {
      "inputs": [
        {
          "internalType": "uint256",
          "name": "index",
          "type": "uint256"
        }
      ],
      "name": "tokenByIndex",
      "outputs": [
        {
          "internalType": "uint256",
          "name": "",
          "type": "uint256"
        }
      ],
      "stateMutability": "view",
      "type": "function"
    },
    {
      "inputs": [
        {
          "internalType": "address",
          "name": "owner",
          "type": "address"
        },
        {
          "internalType": "uint256",
          "name": "index",
          "type": "uint256"
        }
      ],
      "name": "tokenOfOwnerByIndex",
      "outputs": [
        {
          "internalType": "uint256",
          "name": "",
          "type": "uint256"
        }
      ],
      "stateMutability": "view",
      "type": "function"
    },
    {
      "inputs": [
        {
          "internalType": "uint256",
          "name": "tokenId",
          "type": "uint256"
        }
      ],
      "name": "tokenURI",
      "outputs": [
        {
          "internalType": "string",
          "name": "",
          "type": "string"
        }
      ],
      "stateMutability": "view",
      "type": "function"
    },
    {
      "inputs": [],
      "name": "totalSupply",
      "outputs": [
        {
          "internalType": "uint256",
          "name": "",
          "type": "uint256"
        }
      ],
      "stateMutability": "view",
      "type": "function"
    },
    {
      "inputs": [
        {
          "internalType": "address",
          "name": "from",
          "type": "address"
        },
        {
          "internalType": "address",
          "name": "to",
          "type": "address"
        },
        {
          "internalType": "uint256",
          "name": "tokenId",
          "type": "uint256"
        }
      ],
      "name": "transferFrom",
      "outputs": [],
      "stateMutability": "nonpayable",
      "type": "function"
    },
    {
      "inputs": [
        {
          "internalType": "address",
          "name": "newOwner",
          "type": "address"
        }
      ],
      "name": "transferOwnership",
      "outputs": [],
      "stateMutability": "nonpayable",
      "type": "function"
    },
    {
      "inputs": [],
      "name": "unpause",
      "outputs": [],
      "stateMutability": "nonpayable",
      "type": "function"
    }
  ],
  "bytecode": "0x60c06040526040518060400160405280600581526020017f2e6a736f6e000000000000000000000000000000000000000000000000000000815250600c90816200004a91906200066f565b503480156200005857600080fd5b506040516200461a3803806200461a83398181016040528101906200007e91906200091f565b816040518060400160405280600b81526020017f477265656e686f757365730000000000000000000000000000000000000000008152506040518060400160405280600281526020017f47480000000000000000000000000000000000000000000000000000000000008152508160009081620000fc91906200066f565b5080600190816200010e91906200066f565b5050506000600a60006101000a81548160ff021916908315150217905550600073ffffffffffffffffffffffffffffffffffffffff168173ffffffffffffffffffffffffffffffffffffffff1603620001a15760006040517f1e4fbdf7000000000000000000000000000000000000000000000000000000008152600401620001989190620009c1565b60405180910390fd5b620001b2816200023660201b60201c565b508373ffffffffffffffffffffffffffffffffffffffff1660808173ffffffffffffffffffffffffffffffffffffffff16815250508273ffffffffffffffffffffffffffffffffffffffff1660a08173ffffffffffffffffffffffffffffffffffffffff16815250506200022c81620002fc60201b60201c565b50505050620009de565b6000600a60019054906101000a900473ffffffffffffffffffffffffffffffffffffffff16905081600a60016101000a81548173ffffffffffffffffffffffffffffffffffffffff021916908373ffffffffffffffffffffffffffffffffffffffff1602179055508173ffffffffffffffffffffffffffffffffffffffff168173ffffffffffffffffffffffffffffffffffffffff167f8be0079c531659141344cd1fd0a4f28419497f9722a3daafe3b4186f6b6457e060405160405180910390a35050565b6200030c6200032160201b60201c565b80600b90816200031d91906200066f565b5050565b62000331620003c360201b60201c565b73ffffffffffffffffffffffffffffffffffffffff1662000357620003cb60201b60201c565b73ffffffffffffffffffffffffffffffffffffffff1614620003c15762000383620003c360201b60201c565b6040517f118cdaa7000000000000000000000000000000000000000000000000000000008152600401620003b89190620009c1565b60405180910390fd5b565b600033905090565b6000600a60019054906101000a900473ffffffffffffffffffffffffffffffffffffffff16905090565b600081519050919050565b7f4e487b7100000000000000000000000000000000000000000000000000000000600052604160045260246000fd5b7f4e487b7100000000000000000000000000000000000000000000000000000000600052602260045260246000fd5b600060028204905060018216806200047757607f821691505b6020821081036200048d576200048c6200042f565b5b50919050565b60008190508160005260206000209050919050565b60006020601f8301049050919050565b600082821b905092915050565b600060088302620004f77fffffffffffffffffffffffffffffffffffffffffffffffffffffffffffffffff82620004b8565b620005038683620004b8565b95508019841693508086168417925050509392505050565b6000819050919050565b6000819050919050565b6000620005506200054a62000544846200051b565b62000525565b6200051b565b9050919050565b6000819050919050565b6200056c836200052f565b620005846200057b8262000557565b848454620004c5565b825550505050565b600090565b6200059b6200058c565b620005a881848462000561565b505050565b5b81811015620005d057620005c460008262000591565b600181019050620005ae565b5050565b601f8211156200061f57620005e98162000493565b620005f484620004a8565b8101602085101562000604578190505b6200061c6200061385620004a8565b830182620005ad565b50505b505050565b600082821c905092915050565b6000620006446000198460080262000624565b1980831691505092915050565b60006200065f838362000631565b9150826002028217905092915050565b6200067a82620003f5565b67ffffffffffffffff81111562000696576200069562000400565b5b620006a282546200045e565b620006af828285620005d4565b600060209050601f831160018114620006e75760008415620006d2578287015190505b620006de858262000651565b8655506200074e565b601f198416620006f78662000493565b60005b828110156200072157848901518255600182019150602085019450602081019050620006fa565b868310156200074157848901516200073d601f89168262000631565b8355505b6001600288020188555050505b505050505050565b6000604051905090565b600080fd5b600080fd5b600073ffffffffffffffffffffffffffffffffffffffff82169050919050565b600062000797826200076a565b9050919050565b620007a9816200078a565b8114620007b557600080fd5b50565b600081519050620007c9816200079e565b92915050565b600080fd5b600080fd5b6000601f19601f8301169050919050565b620007f582620007d9565b810181811067ffffffffffffffff8211171562000817576200081662000400565b5b80604052505050565b60006200082c62000756565b90506200083a8282620007ea565b919050565b600067ffffffffffffffff8211156200085d576200085c62000400565b5b6200086882620007d9565b9050602081019050919050565b60005b838110156200089557808201518184015260208101905062000878565b60008484015250505050565b6000620008b8620008b2846200083f565b62000820565b905082815260208101848484011115620008d757620008d6620007d4565b5b620008e484828562000875565b509392505050565b600082601f830112620009045762000903620007cf565b5b815162000916848260208601620008a1565b91505092915050565b600080600080608085870312156200093c576200093b62000760565b5b60006200094c87828801620007b8565b94505060206200095f87828801620007b8565b93505060406200097287828801620007b8565b925050606085015167ffffffffffffffff81111562000996576200099562000765565b5b620009a487828801620008ec565b91505092959194509250565b620009bb816200078a565b82525050565b6000602082019050620009d86000830184620009b0565b92915050565b60805160a051613c0862000a1260003960008181610dd1015261104c0152600081816109a50152610c9c0152613c086000f3fe608060405234801561001057600080fd5b50600436106101f05760003560e01c80636c0360eb1161010f578063a1448194116100a2578063c87b56dd11610071578063c87b56dd1461056d578063e65166b31461059d578063e985e9c5146105cd578063f2fde38b146105fd576101f0565b8063a1448194146104fb578063a22cb46514610517578063b88d4fde14610533578063c66828621461054f576101f0565b80638c574b48116100de5780638c574b48146104855780638da5cb5b146104a157806391f4c45f146104bf57806395d89b41146104dd576101f0565b80636c0360eb1461042357806370a0823114610441578063715018a6146104715780638456cb591461047b576101f0565b80633f4ba83a1161018757806355f804b31161015657806355f804b31461039b57806358e2716b146103b75780635c975abb146103d55780636352211e146103f3576101f0565b80633f4ba83a1461032957806342842e0e1461033357806342966c681461034f5780634f6ccce71461036b576101f0565b80630a621d55116101c35780630a621d551461028f57806318160ddd146102bf57806323b872dd146102dd5780632f745c59146102f9576101f0565b806301ffc9a7146101f557806306fdde0314610225578063081812fc14610243578063095ea7b314610273575b600080fd5b61020f600480360381019061020a9190612bed565b610619565b60405161021c9190612c35565b60405180910390f35b61022d61062b565b60405161023a9190612ce0565b60405180910390f35b61025d60048036038101906102589190612d38565b6106bd565b60405161026a9190612da6565b60405180910390f35b61028d60048036038101906102889190612ded565b6106d9565b005b6102a960048036038101906102a49190612d38565b6106ef565b6040516102b69190612c35565b60405180910390f35b6102c761070f565b6040516102d49190612e3c565b60405180910390f35b6102f760048036038101906102f29190612e57565b61071c565b005b610313600480360381019061030e9190612ded565b61081e565b6040516103209190612e3c565b60405180910390f35b6103316108c7565b005b61034d60048036038101906103489190612e57565b6108d9565b005b61036960048036038101906103649190612d38565b6108f9565b005b61038560048036038101906103809190612d38565b610910565b6040516103929190612e3c565b60405180910390f35b6103b560048036038101906103b09190612fdf565b610986565b005b6103bf6109a1565b6040516103cc9190613087565b60405180910390f35b6103dd6109c9565b6040516103ea9190612c35565b60405180910390f35b61040d60048036038101906104089190612d38565b6109e0565b60405161041a9190612da6565b60405180910390f35b61042b6109f2565b6040516104389190612ce0565b60405180910390f35b61045b600480360381019061045691906130a2565b610a80565b6040516104689190612e3c565b60405180910390f35b610479610b3a565b005b610483610b4e565b005b61049f600480360381019061049a9190613197565b610b60565b005b6104a961101e565b6040516104b69190612da6565b60405180910390f35b6104c7611048565b6040516104d49190613087565b60405180910390f35b6104e5611070565b6040516104f29190612ce0565b60405180910390f35b61051560048036038101906105109190612ded565b611102565b005b610531600480360381019061052c919061321f565b611118565b005b61054d60048036038101906105489190613300565b61112e565b005b61055761114b565b6040516105649190612ce0565b60405180910390f35b61058760048036038101906105829190612d38565b6111d9565b6040516105949190612ce0565b60405180910390f35b6105b760048036038101906105b29190612d38565b611343565b6040516105c49190612c35565b60405180910390f35b6105e760048036038101906105e29190613383565b611363565b6040516105f49190612c35565b60405180910390f35b610617600480360381019061061291906130a2565b6113f7565b005b60006106248261147d565b9050919050565b60606000805461063a906133f2565b80601f0160208091040260200160405190810160405280929190818152602001828054610666906133f2565b80156106b35780601f10610688576101008083540402835291602001916106b3565b820191906000526020600020905b81548152906001019060200180831161069657829003601f168201915b5050505050905090565b60006106c8826114f7565b506106d28261157f565b9050919050565b6106eb82826106e66115bc565b6115c4565b5050565b600e6020528060005260406000206000915054906101000a900460ff1681565b6000600880549050905090565b600073ffffffffffffffffffffffffffffffffffffffff168273ffffffffffffffffffffffffffffffffffffffff160361078e5760006040517f64a0ae920000000000000000000000000000000000000000000000000000000081526004016107859190612da6565b60405180910390fd5b60006107a2838361079d6115bc565b6115d6565b90508373ffffffffffffffffffffffffffffffffffffffff168173ffffffffffffffffffffffffffffffffffffffff1614610818578382826040517f64283d7b00000000000000000000000000000000000000000000000000000000815260040161080f93929190613423565b60405180910390fd5b50505050565b600061082983610a80565b821061086e5782826040517fa57d13dc00000000000000000000000000000000000000000000000000000000815260040161086592919061345a565b60405180910390fd5b600660008473ffffffffffffffffffffffffffffffffffffffff1673ffffffffffffffffffffffffffffffffffffffff168152602001908152602001600020600083815260200190815260200160002054905092915050565b6108cf6115ec565b6108d7611673565b565b6108f48383836040518060200160405280600081525061112e565b505050565b61090c6000826109076115bc565b6115d6565b5050565b600061091a61070f565b8210610960576000826040517fa57d13dc00000000000000000000000000000000000000000000000000000000815260040161095792919061345a565b60405180910390fd5b6008828154811061097457610973613483565b5b90600052602060002001549050919050565b61098e6115ec565b80600b908161099d9190613654565b5050565b60007f0000000000000000000000000000000000000000000000000000000000000000905090565b6000600a60009054906101000a900460ff16905090565b60006109eb826114f7565b9050919050565b600b80546109ff906133f2565b80601f0160208091040260200160405190810160405280929190818152602001828054610a2b906133f2565b8015610a785780601f10610a4d57610100808354040283529160200191610a78565b820191906000526020600020905b815481529060010190602001808311610a5b57829003601f168201915b505050505081565b60008073ffffffffffffffffffffffffffffffffffffffff168273ffffffffffffffffffffffffffffffffffffffff1603610af35760006040517f89c62b64000000000000000000000000000000000000000000000000000000008152600401610aea9190612da6565b60405180910390fd5b600360008373ffffffffffffffffffffffffffffffffffffffff1673ffffffffffffffffffffffffffffffffffffffff168152602001908152602001600020549050919050565b610b426115ec565b610b4c60006116d6565b565b610b566115ec565b610b5e61179c565b565b60008251905060005b818110156110185760008373ffffffffffffffffffffffffffffffffffffffff16636352211e868481518110610ba257610ba1613483565b5b60200260200101516040518263ffffffff1660e01b8152600401610bc69190612e3c565b602060405180830381865afa158015610be3573d6000803e3d6000fd5b505050506040513d601f19601f82011682018060405250810190610c07919061373b565b90503373ffffffffffffffffffffffffffffffffffffffff168173ffffffffffffffffffffffffffffffffffffffff1614610c7b5780336040517f3a7a997c000000000000000000000000000000000000000000000000000000008152600401610c72929190613768565b60405180910390fd5b6000858381518110610c9057610c8f613483565b5b602002602001015190507f000000000000000000000000000000000000000000000000000000000000000073ffffffffffffffffffffffffffffffffffffffff168573ffffffffffffffffffffffffffffffffffffffff1603610dcf57600d6000878581518110610d0457610d03613483565b5b6020026020010151815260200190815260200160002060009054906101000a900460ff1615610d8457858381518110610d4057610d3f613483565b5b60200260200101516040517f35c500ed000000000000000000000000000000000000000000000000000000008152600401610d7b9190612e3c565b60405180910390fd5b6001600d6000888681518110610d9d57610d9c613483565b5b6020026020010151815260200190815260200160002060006101000a81548160ff021916908315150217905550610f6c565b7f000000000000000000000000000000000000000000000000000000000000000073ffffffffffffffffffffffffffffffffffffffff168573ffffffffffffffffffffffffffffffffffffffff1603610f2e57600e6000878581518110610e3957610e38613483565b5b6020026020010151815260200190815260200160002060009054906101000a900460ff1615610eb957858381518110610e7557610e74613483565b5b60200260200101516040517f35c500ed000000000000000000000000000000000000000000000000000000008152600401610eb09190612e3c565b60405180910390fd5b6001600e6000888681518110610ed257610ed1613483565b5b6020026020010151815260200190815260200160002060006101000a81548160ff021916908315150217905550610fab868481518110610f1557610f14613483565b5b6020026020010151610f2791906137c0565b9050610f6b565b846040517fbf29a5e5000000000000000000000000000000000000000000000000000000008152600401610f629190612da6565b60405180910390fd5b5b610f7633826117ff565b6000600b610f838361181d565b604051602001610f949291906138ff565b6040516020818303038152906040529050610faf82826118eb565b8573ffffffffffffffffffffffffffffffffffffffff16823373ffffffffffffffffffffffffffffffffffffffff167f7e6632ca16a0ac6cf28448500b1a17d96c8b8163ad4c4a9b44ef5386cc02779e60405160405180910390a4505050806001019050610b69565b50505050565b6000600a60019054906101000a900473ffffffffffffffffffffffffffffffffffffffff16905090565b60007f0000000000000000000000000000000000000000000000000000000000000000905090565b60606001805461107f906133f2565b80601f01602080910402602001604051908101604052809291908181526020018280546110ab906133f2565b80156110f85780601f106110cd576101008083540402835291602001916110f8565b820191906000526020600020905b8154815290600101906020018083116110db57829003601f168201915b5050505050905090565b61110a6115ec565b61111482826117ff565b5050565b61112a6111236115bc565b8383611a2d565b5050565b61113984848461071c565b61114584848484611b9c565b50505050565b600c8054611158906133f2565b80601f0160208091040260200160405190810160405280929190818152602001828054611184906133f2565b80156111d15780601f106111a6576101008083540402835291602001916111d1565b820191906000526020600020905b8154815290600101906020018083116111b457829003601f168201915b505050505081565b606060006111ee6111e9846109e0565b610a80565b1161122e576040517f08c379a0000000000000000000000000000000000000000000000000000000008152600401611225906139a0565b60405180910390fd5b6000600f6000848152602001908152602001600020805461124e906133f2565b80601f016020809104026020016040519081016040528092919081815260200182805461127a906133f2565b80156112c75780601f1061129c576101008083540402835291602001916112c7565b820191906000526020600020905b8154815290600101906020018083116112aa57829003601f168201915b505050505090506000815111156112e1578091505061133e565b60006112eb611d53565b9050600081511161130b5760405180602001604052806000815250611339565b806113158561181d565b600c604051602001611329939291906139c0565b6040516020818303038152906040525b925050505b919050565b600d6020528060005260406000206000915054906101000a900460ff1681565b6000600560008473ffffffffffffffffffffffffffffffffffffffff1673ffffffffffffffffffffffffffffffffffffffff16815260200190815260200160002060008373ffffffffffffffffffffffffffffffffffffffff1673ffffffffffffffffffffffffffffffffffffffff16815260200190815260200160002060009054906101000a900460ff16905092915050565b6113ff6115ec565b600073ffffffffffffffffffffffffffffffffffffffff168173ffffffffffffffffffffffffffffffffffffffff16036114715760006040517f1e4fbdf70000000000000000000000000000000000000000000000000000000081526004016114689190612da6565b60405180910390fd5b61147a816116d6565b50565b60007f780e9d63000000000000000000000000000000000000000000000000000000007bffffffffffffffffffffffffffffffffffffffffffffffffffffffff1916827bffffffffffffffffffffffffffffffffffffffffffffffffffffffff191614806114f057506114ef82611d6a565b5b9050919050565b60008061150383611e4c565b9050600073ffffffffffffffffffffffffffffffffffffffff168173ffffffffffffffffffffffffffffffffffffffff160361157657826040517f7e27328900000000000000000000000000000000000000000000000000000000815260040161156d9190612e3c565b60405180910390fd5b80915050919050565b60006004600083815260200190815260200160002060009054906101000a900473ffffffffffffffffffffffffffffffffffffffff169050919050565b600033905090565b6115d18383836001611e89565b505050565b60006115e384848461204e565b90509392505050565b6115f46115bc565b73ffffffffffffffffffffffffffffffffffffffff1661161261101e565b73ffffffffffffffffffffffffffffffffffffffff1614611671576116356115bc565b6040517f118cdaa70000000000000000000000000000000000000000000000000000000081526004016116689190612da6565b60405180910390fd5b565b61167b61206c565b6000600a60006101000a81548160ff0219169083151502179055507f5db9ee0a495bf2e6ff9c91a7834c1ba4fdd244a5e8aa4e537bd38aeae4b073aa6116bf6115bc565b6040516116cc9190612da6565b60405180910390a1565b6000600a60019054906101000a900473ffffffffffffffffffffffffffffffffffffffff16905081600a60016101000a81548173ffffffffffffffffffffffffffffffffffffffff021916908373ffffffffffffffffffffffffffffffffffffffff1602179055508173ffffffffffffffffffffffffffffffffffffffff168173ffffffffffffffffffffffffffffffffffffffff167f8be0079c531659141344cd1fd0a4f28419497f9722a3daafe3b4186f6b6457e060405160405180910390a35050565b6117a46120ac565b6001600a60006101000a81548160ff0219169083151502179055507f62e78cea01bee320cd4e420270b5ea74000d11b0c9f74754ebdbfc544b05a2586117e86115bc565b6040516117f59190612da6565b60405180910390a1565b6118198282604051806020016040528060008152506120ed565b5050565b60606000600161182c84612109565b01905060008167ffffffffffffffff81111561184b5761184a612eb4565b5b6040519080825280601f01601f19166020018201604052801561187d5781602001600182028036833780820191505090505b509050600082602001820190505b6001156118e0578080600190039150507f3031323334353637383961626364656600000000000000000000000000000000600a86061a8153600a85816118d4576118d36139f1565b5b0494506000850361188b575b819350505050919050565b6000600f6000848152602001908152602001600020805461190b906133f2565b80601f0160208091040260200160405190810160405280929190818152602001828054611937906133f2565b80156119845780601f1061195957610100808354040283529160200191611984565b820191906000526020600020905b81548152906001019060200180831161196757829003601f168201915b5050505050905060008151146119cf576040517f08c379a00000000000000000000000000000000000000000000000000000000081526004016119c690613a6c565b60405180910390fd5b81600f600085815260200190815260200160002090816119ef9190613654565b50827fa109ba539900bf1b633f956d63c96fc89b814c7287f7aa50a9216d0b5565720783604051611a209190612ce0565b60405180910390a2505050565b600073ffffffffffffffffffffffffffffffffffffffff168273ffffffffffffffffffffffffffffffffffffffff1603611a9e57816040517f5b08ba18000000000000000000000000000000000000000000000000000000008152600401611a959190612da6565b60405180910390fd5b80600560008573ffffffffffffffffffffffffffffffffffffffff1673ffffffffffffffffffffffffffffffffffffffff16815260200190815260200160002060008473ffffffffffffffffffffffffffffffffffffffff1673ffffffffffffffffffffffffffffffffffffffff16815260200190815260200160002060006101000a81548160ff0219169083151502179055508173ffffffffffffffffffffffffffffffffffffffff168373ffffffffffffffffffffffffffffffffffffffff167f17307eab39ab6107e8899845ad3d59bd9653f200f220920489ca2b5937696c3183604051611b8f9190612c35565b60405180910390a3505050565b60008373ffffffffffffffffffffffffffffffffffffffff163b1115611d4d578273ffffffffffffffffffffffffffffffffffffffff1663150b7a02611be06115bc565b8685856040518563ffffffff1660e01b8152600401611c029493929190613ae1565b6020604051808303816000875af1925050508015611c3e57506040513d601f19601f82011682018060405250810190611c3b9190613b42565b60015b611cc2573d8060008114611c6e576040519150601f19603f3d011682016040523d82523d6000602084013e611c73565b606091505b506000815103611cba57836040517f64a0ae92000000000000000000000000000000000000000000000000000000008152600401611cb19190612da6565b60405180910390fd5b805181602001fd5b63150b7a0260e01b7bffffffffffffffffffffffffffffffffffffffffffffffffffffffff1916817bffffffffffffffffffffffffffffffffffffffffffffffffffffffff191614611d4b57836040517f64a0ae92000000000000000000000000000000000000000000000000000000008152600401611d429190612da6565b60405180910390fd5b505b50505050565b606060405180602001604052806000815250905090565b60007f80ac58cd000000000000000000000000000000000000000000000000000000007bffffffffffffffffffffffffffffffffffffffffffffffffffffffff1916827bffffffffffffffffffffffffffffffffffffffffffffffffffffffff19161480611e3557507f5b5e139f000000000000000000000000000000000000000000000000000000007bffffffffffffffffffffffffffffffffffffffffffffffffffffffff1916827bffffffffffffffffffffffffffffffffffffffffffffffffffffffff1916145b80611e455750611e448261225c565b5b9050919050565b60006002600083815260200190815260200160002060009054906101000a900473ffffffffffffffffffffffffffffffffffffffff169050919050565b8080611ec25750600073ffffffffffffffffffffffffffffffffffffffff168273ffffffffffffffffffffffffffffffffffffffff1614155b15611ff6576000611ed2846114f7565b9050600073ffffffffffffffffffffffffffffffffffffffff168373ffffffffffffffffffffffffffffffffffffffff1614158015611f3d57508273ffffffffffffffffffffffffffffffffffffffff168173ffffffffffffffffffffffffffffffffffffffff1614155b8015611f505750611f4e8184611363565b155b15611f9257826040517fa9fbf51f000000000000000000000000000000000000000000000000000000008152600401611f899190612da6565b60405180910390fd5b8115611ff457838573ffffffffffffffffffffffffffffffffffffffff168273ffffffffffffffffffffffffffffffffffffffff167f8c5be1e5ebec7d5bd14f71427d1e84f3dd0314c0f7b2291e5b200ac8c7c3b92560405160405180910390a45b505b836004600085815260200190815260200160002060006101000a81548173ffffffffffffffffffffffffffffffffffffffff021916908373ffffffffffffffffffffffffffffffffffffffff16021790555050505050565b60006120586120ac565b6120638484846122c6565b90509392505050565b6120746109c9565b6120aa576040517f8dfc202b00000000000000000000000000000000000000000000000000000000815260040160405180910390fd5b565b6120b46109c9565b156120eb576040517fd93c066500000000000000000000000000000000000000000000000000000000815260040160405180910390fd5b565b6120f783836123e3565b6121046000848484611b9c565b505050565b600080600090507a184f03e93ff9f4daa797ed6e38ed64bf6a1f0100000000000000008310612167577a184f03e93ff9f4daa797ed6e38ed64bf6a1f010000000000000000838161215d5761215c6139f1565b5b0492506040810190505b6d04ee2d6d415b85acef810000000083106121a4576d04ee2d6d415b85acef8100000000838161219a576121996139f1565b5b0492506020810190505b662386f26fc1000083106121d357662386f26fc1000083816121c9576121c86139f1565b5b0492506010810190505b6305f5e10083106121fc576305f5e10083816121f2576121f16139f1565b5b0492506008810190505b6127108310612221576127108381612217576122166139f1565b5b0492506004810190505b60648310612244576064838161223a576122396139f1565b5b0492506002810190505b600a8310612253576001810190505b80915050919050565b60007f01ffc9a7000000000000000000000000000000000000000000000000000000007bffffffffffffffffffffffffffffffffffffffffffffffffffffffff1916827bffffffffffffffffffffffffffffffffffffffffffffffffffffffff1916149050919050565b6000806122d48585856124dc565b9050600073ffffffffffffffffffffffffffffffffffffffff168173ffffffffffffffffffffffffffffffffffffffff160361231857612313846126f6565b612357565b8473ffffffffffffffffffffffffffffffffffffffff168173ffffffffffffffffffffffffffffffffffffffff161461235657612355818561273f565b5b5b600073ffffffffffffffffffffffffffffffffffffffff168573ffffffffffffffffffffffffffffffffffffffff160361239957612394846128a0565b6123d8565b8473ffffffffffffffffffffffffffffffffffffffff168173ffffffffffffffffffffffffffffffffffffffff16146123d7576123d68585612971565b5b5b809150509392505050565b600073ffffffffffffffffffffffffffffffffffffffff168273ffffffffffffffffffffffffffffffffffffffff16036124555760006040517f64a0ae9200000000000000000000000000000000000000000000000000000000815260040161244c9190612da6565b60405180910390fd5b6000612463838360006115d6565b9050600073ffffffffffffffffffffffffffffffffffffffff168173ffffffffffffffffffffffffffffffffffffffff16146124d75760006040517f73c6ac6e0000000000000000000000000000000000000000000000000000000081526004016124ce9190612da6565b60405180910390fd5b505050565b6000806124e884611e4c565b9050600073ffffffffffffffffffffffffffffffffffffffff168373ffffffffffffffffffffffffffffffffffffffff161461252a576125298184866129fc565b5b600073ffffffffffffffffffffffffffffffffffffffff168173ffffffffffffffffffffffffffffffffffffffff16146125bb5761256c600085600080611e89565b6001600360008373ffffffffffffffffffffffffffffffffffffffff1673ffffffffffffffffffffffffffffffffffffffff168152602001908152602001600020600082825403925050819055505b600073ffffffffffffffffffffffffffffffffffffffff168573ffffffffffffffffffffffffffffffffffffffff161461263e576001600360008773ffffffffffffffffffffffffffffffffffffffff1673ffffffffffffffffffffffffffffffffffffffff168152602001908152602001600020600082825401925050819055505b846002600086815260200190815260200160002060006101000a81548173ffffffffffffffffffffffffffffffffffffffff021916908373ffffffffffffffffffffffffffffffffffffffff160217905550838573ffffffffffffffffffffffffffffffffffffffff168273ffffffffffffffffffffffffffffffffffffffff167fddf252ad1be2c89b69c2b068fc378daa952ba7f163c4a11628f55a4df523b3ef60405160405180910390a4809150509392505050565b6008805490506009600083815260200190815260200160002081905550600881908060018154018082558091505060019003906000526020600020016000909190919091505550565b600061274a83610a80565b905060006007600084815260200190815260200160002054905081811461282f576000600660008673ffffffffffffffffffffffffffffffffffffffff1673ffffffffffffffffffffffffffffffffffffffff168152602001908152602001600020600084815260200190815260200160002054905080600660008773ffffffffffffffffffffffffffffffffffffffff1673ffffffffffffffffffffffffffffffffffffffff168152602001908152602001600020600084815260200190815260200160002081905550816007600083815260200190815260200160002081905550505b6007600084815260200190815260200160002060009055600660008573ffffffffffffffffffffffffffffffffffffffff1673ffffffffffffffffffffffffffffffffffffffff16815260200190815260200160002060008381526020019081526020016000206000905550505050565b600060016008805490506128b49190613b6f565b90506000600960008481526020019081526020016000205490506000600883815481106128e4576128e3613483565b5b90600052602060002001549050806008838154811061290657612905613483565b5b90600052602060002001819055508160096000838152602001908152602001600020819055506009600085815260200190815260200160002060009055600880548061295557612954613ba3565b5b6001900381819060005260206000200160009055905550505050565b6000600161297e84610a80565b6129889190613b6f565b905081600660008573ffffffffffffffffffffffffffffffffffffffff1673ffffffffffffffffffffffffffffffffffffffff168152602001908152602001600020600083815260200190815260200160002081905550806007600084815260200190815260200160002081905550505050565b612a07838383612ac0565b612abb57600073ffffffffffffffffffffffffffffffffffffffff168373ffffffffffffffffffffffffffffffffffffffff1603612a7c57806040517f7e273289000000000000000000000000000000000000000000000000000000008152600401612a739190612e3c565b60405180910390fd5b81816040517f177e802f000000000000000000000000000000000000000000000000000000008152600401612ab292919061345a565b60405180910390fd5b505050565b60008073ffffffffffffffffffffffffffffffffffffffff168373ffffffffffffffffffffffffffffffffffffffff1614158015612b7857508273ffffffffffffffffffffffffffffffffffffffff168473ffffffffffffffffffffffffffffffffffffffff161480612b395750612b388484611363565b5b80612b7757508273ffffffffffffffffffffffffffffffffffffffff16612b5f8361157f565b73ffffffffffffffffffffffffffffffffffffffff16145b5b90509392505050565b6000604051905090565b600080fd5b600080fd5b60007fffffffff0000000000000000000000000000000000000000000000000000000082169050919050565b612bca81612b95565b8114612bd557600080fd5b50565b600081359050612be781612bc1565b92915050565b600060208284031215612c0357612c02612b8b565b5b6000612c1184828501612bd8565b91505092915050565b60008115159050919050565b612c2f81612c1a565b82525050565b6000602082019050612c4a6000830184612c26565b92915050565b600081519050919050565b600082825260208201905092915050565b60005b83811015612c8a578082015181840152602081019050612c6f565b60008484015250505050565b6000601f19601f8301169050919050565b6000612cb282612c50565b612cbc8185612c5b565b9350612ccc818560208601612c6c565b612cd581612c96565b840191505092915050565b60006020820190508181036000830152612cfa8184612ca7565b905092915050565b6000819050919050565b612d1581612d02565b8114612d2057600080fd5b50565b600081359050612d3281612d0c565b92915050565b600060208284031215612d4e57612d4d612b8b565b5b6000612d5c84828501612d23565b91505092915050565b600073ffffffffffffffffffffffffffffffffffffffff82169050919050565b6000612d9082612d65565b9050919050565b612da081612d85565b82525050565b6000602082019050612dbb6000830184612d97565b92915050565b612dca81612d85565b8114612dd557600080fd5b50565b600081359050612de781612dc1565b92915050565b60008060408385031215612e0457612e03612b8b565b5b6000612e1285828601612dd8565b9250506020612e2385828601612d23565b9150509250929050565b612e3681612d02565b82525050565b6000602082019050612e516000830184612e2d565b92915050565b600080600060608486031215612e7057612e6f612b8b565b5b6000612e7e86828701612dd8565b9350506020612e8f86828701612dd8565b9250506040612ea086828701612d23565b9150509250925092565b600080fd5b600080fd5b7f4e487b7100000000000000000000000000000000000000000000000000000000600052604160045260246000fd5b612eec82612c96565b810181811067ffffffffffffffff82111715612f0b57612f0a612eb4565b5b80604052505050565b6000612f1e612b81565b9050612f2a8282612ee3565b919050565b600067ffffffffffffffff821115612f4a57612f49612eb4565b5b612f5382612c96565b9050602081019050919050565b82818337600083830152505050565b6000612f82612f7d84612f2f565b612f14565b905082815260208101848484011115612f9e57612f9d612eaf565b5b612fa9848285612f60565b509392505050565b600082601f830112612fc657612fc5612eaa565b5b8135612fd6848260208601612f6f565b91505092915050565b600060208284031215612ff557612ff4612b8b565b5b600082013567ffffffffffffffff81111561301357613012612b90565b5b61301f84828501612fb1565b91505092915050565b6000819050919050565b600061304d61304861304384612d65565b613028565b612d65565b9050919050565b600061305f82613032565b9050919050565b600061307182613054565b9050919050565b61308181613066565b82525050565b600060208201905061309c6000830184613078565b92915050565b6000602082840312156130b8576130b7612b8b565b5b60006130c684828501612dd8565b91505092915050565b600067ffffffffffffffff8211156130ea576130e9612eb4565b5b602082029050602081019050919050565b600080fd5b600061311361310e846130cf565b612f14565b90508083825260208201905060208402830185811115613136576131356130fb565b5b835b8181101561315f578061314b8882612d23565b845260208401935050602081019050613138565b5050509392505050565b600082601f83011261317e5761317d612eaa565b5b813561318e848260208601613100565b91505092915050565b600080604083850312156131ae576131ad612b8b565b5b600083013567ffffffffffffffff8111156131cc576131cb612b90565b5b6131d885828601613169565b92505060206131e985828601612dd8565b9150509250929050565b6131fc81612c1a565b811461320757600080fd5b50565b600081359050613219816131f3565b92915050565b6000806040838503121561323657613235612b8b565b5b600061324485828601612dd8565b92505060206132558582860161320a565b9150509250929050565b600067ffffffffffffffff82111561327a57613279612eb4565b5b61328382612c96565b9050602081019050919050565b60006132a361329e8461325f565b612f14565b9050828152602081018484840111156132bf576132be612eaf565b5b6132ca848285612f60565b509392505050565b600082601f8301126132e7576132e6612eaa565b5b81356132f7848260208601613290565b91505092915050565b6000806000806080858703121561331a57613319612b8b565b5b600061332887828801612dd8565b945050602061333987828801612dd8565b935050604061334a87828801612d23565b925050606085013567ffffffffffffffff81111561336b5761336a612b90565b5b613377878288016132d2565b91505092959194509250565b6000806040838503121561339a57613399612b8b565b5b60006133a885828601612dd8565b92505060206133b985828601612dd8565b9150509250929050565b7f4e487b7100000000000000000000000000000000000000000000000000000000600052602260045260246000fd5b6000600282049050600182168061340a57607f821691505b60208210810361341d5761341c6133c3565b5b50919050565b60006060820190506134386000830186612d97565b6134456020830185612e2d565b6134526040830184612d97565b949350505050565b600060408201905061346f6000830185612d97565b61347c6020830184612e2d565b9392505050565b7f4e487b7100000000000000000000000000000000000000000000000000000000600052603260045260246000fd5b60008190508160005260206000209050919050565b60006020601f8301049050919050565b600082821b905092915050565b6000600883026135147fffffffffffffffffffffffffffffffffffffffffffffffffffffffffffffffff826134d7565b61351e86836134d7565b95508019841693508086168417925050509392505050565b600061355161354c61354784612d02565b613028565b612d02565b9050919050565b6000819050919050565b61356b83613536565b61357f61357782613558565b8484546134e4565b825550505050565b600090565b613594613587565b61359f818484613562565b505050565b5b818110156135c3576135b860008261358c565b6001810190506135a5565b5050565b601f821115613608576135d9816134b2565b6135e2846134c7565b810160208510156135f1578190505b6136056135fd856134c7565b8301826135a4565b50505b505050565b600082821c905092915050565b600061362b6000198460080261360d565b1980831691505092915050565b6000613644838361361a565b9150826002028217905092915050565b61365d82612c50565b67ffffffffffffffff81111561367657613675612eb4565b5b61368082546133f2565b61368b8282856135c7565b600060209050601f8311600181146136be57600084156136ac578287015190505b6136b68582613638565b86555061371e565b601f1984166136cc866134b2565b60005b828110156136f4578489015182556001820191506020850194506020810190506136cf565b86831015613711578489015161370d601f89168261361a565b8355505b6001600288020188555050505b505050505050565b60008151905061373581612dc1565b92915050565b60006020828403121561375157613750612b8b565b5b600061375f84828501613726565b91505092915050565b600060408201905061377d6000830185612d97565b61378a6020830184612d97565b9392505050565b7f4e487b7100000000000000000000000000000000000000000000000000000000600052601160045260246000fd5b60006137cb82612d02565b91506137d683612d02565b92508282019050808211156137ee576137ed613791565b5b92915050565b600081905092915050565b6000815461380c816133f2565b61381681866137f4565b94506001821660008114613831576001811461384657613879565b60ff1983168652811515820286019350613879565b61384f856134b2565b60005b8381101561387157815481890152600182019150602081019050613852565b838801955050505b50505092915050565b600061388d82612c50565b61389781856137f4565b93506138a7818560208601612c6c565b80840191505092915050565b7f2e6a736f6e000000000000000000000000000000000000000000000000000000600082015250565b60006138e96005836137f4565b91506138f4826138b3565b600582019050919050565b600061390b82856137ff565b91506139178284613882565b9150613922826138dc565b91508190509392505050565b7f4552433732314d657461646174613a2055524920717565727920666f72206e6f60008201527f6e6578697374656e7420746f6b656e0000000000000000000000000000000000602082015250565b600061398a602f83612c5b565b91506139958261392e565b604082019050919050565b600060208201905081810360008301526139b98161397d565b9050919050565b60006139cc8286613882565b91506139d88285613882565b91506139e482846137ff565b9150819050949350505050565b7f4e487b7100000000000000000000000000000000000000000000000000000000600052601260045260246000fd5b7f546f6b656e2055524920697320616c7265616479207365740000000000000000600082015250565b6000613a56601883612c5b565b9150613a6182613a20565b602082019050919050565b60006020820190508181036000830152613a8581613a49565b9050919050565b600081519050919050565b600082825260208201905092915050565b6000613ab382613a8c565b613abd8185613a97565b9350613acd818560208601612c6c565b613ad681612c96565b840191505092915050565b6000608082019050613af66000830187612d97565b613b036020830186612d97565b613b106040830185612e2d565b8181036060830152613b228184613aa8565b905095945050505050565b600081519050613b3c81612bc1565b92915050565b600060208284031215613b5857613b57612b8b565b5b6000613b6684828501613b2d565b91505092915050565b6000613b7a82612d02565b9150613b8583612d02565b9250828203905081811115613b9d57613b9c613791565b5b92915050565b7f4e487b7100000000000000000000000000000000000000000000000000000000600052603160045260246000fdfea26469706673582212207c3e36e860516f162a05e5424acbbeafe1dddbad8fdc2e2704dc884c9c48717164736f6c63430008180033",
  "linkReferences": {},
  "deployedLinkReferences": {}
}